{
  "_format": "hh-sol-artifact-1",
  "contractName": "Bank",
  "sourceName": "contracts/Bank.sol",
  "abi": [
    {
      "inputs": [],
      "name": "deposit",
      "outputs": [],
      "stateMutability": "payable",
      "type": "function"
    },
    {
      "inputs": [],
      "name": "getBalance",
      "outputs": [
        {
          "internalType": "uint256",
          "name": "",
          "type": "uint256"
        }
      ],
      "stateMutability": "view",
      "type": "function"
    },
    {
      "inputs": [
        {
          "internalType": "address",
          "name": "_to",
          "type": "address"
        },
        {
          "internalType": "uint256",
          "name": "_amount",
          "type": "uint256"
        }
      ],
      "name": "withdraw",
      "outputs": [],
      "stateMutability": "nonpayable",
      "type": "function"
    }
  ],
  "bytecode": "0x6080604052348015600f57600080fd5b506102838061001f6000396000f3fe6080604052600436106100345760003560e01c806312065fe014610039578063d0e30db014610068578063f3fef3a314610072575b600080fd5b34801561004557600080fd5b503360009081526020819052604090205460405190815260200160405180910390f35b610070610092565b005b34801561007e57600080fd5b5061007061008d3660046101d3565b6100b8565b33600090815260208190526040812080543492906100b1908490610221565b9091555050565b336000908152602081905260409020548111156101115760405162461bcd60e51b81526020600482015260126024820152714e6f7420656e6f7567682062616c616e636560701b60448201526064015b60405180910390fd5b336000908152602081905260408120805483929061013090849061023a565b90915550506040516000906001600160a01b0384169083908381818185875af1925050503d8060008114610180576040519150601f19603f3d011682016040523d82523d6000602084013e610185565b606091505b50509050806101ce5760405162461bcd60e51b81526020600482015260156024820152742330b4b632b2103a379039b2b7321022ba3432b91760591b6044820152606401610108565b505050565b600080604083850312156101e657600080fd5b82356001600160a01b03811681146101fd57600080fd5b946020939093013593505050565b634e487b7160e01b600052601160045260246000fd5b808201808211156102345761023461020b565b92915050565b818103818111156102345761023461020b56fea2646970667358221220ff1728226a53881f56d5389dbe0332f0171a4f6c3e625235af85aa4e52bdfe3264736f6c634300081c0033",
  "linkReferences": {},
  "deployedLinkReferences": {}
}