{
  "_format": "hh-sol-artifact-1",
  "contractName": "Bank",
  "sourceName": "contracts/Bank.sol",
  "abi": [
    {
      "anonymous": false,
      "inputs": [
        {
          "indexed": false,
          "internalType": "address",
          "name": "_sender",
          "type": "address"
        },
        {
          "indexed": false,
          "internalType": "uint256",
          "name": "_amount",
          "type": "uint256"
        }
      ],
      "name": "Deposit",
      "type": "event"
    },
    {
      "anonymous": false,
      "inputs": [
        {
          "indexed": false,
          "internalType": "address",
          "name": "_sender",
          "type": "address"
        },
        {
          "indexed": false,
          "internalType": "address",
          "name": "_to",
          "type": "address"
        },
        {
          "indexed": false,
          "internalType": "uint256",
          "name": "_amount",
          "type": "uint256"
        }
      ],
      "name": "Withdraw",
      "type": "event"
    },
    {
      "inputs": [],
      "name": "deposit",
      "outputs": [],
      "stateMutability": "payable",
      "type": "function"
    },
    {
      "inputs": [],
      "name": "getBalance",
      "outputs": [
        {
          "internalType": "uint256",
          "name": "",
          "type": "uint256"
        }
      ],
      "stateMutability": "view",
      "type": "function"
    },
    {
      "inputs": [
        {
          "internalType": "address",
          "name": "_to",
          "type": "address"
        },
        {
          "internalType": "uint256",
          "name": "_amount",
          "type": "uint256"
        }
      ],
      "name": "withdraw",
      "outputs": [],
      "stateMutability": "nonpayable",
      "type": "function"
    }
  ],
  "bytecode": "0x6080604052348015600f57600080fd5b506103048061001f6000396000f3fe6080604052600436106100345760003560e01c806312065fe014610039578063d0e30db014610068578063f3fef3a314610072575b600080fd5b34801561004557600080fd5b503360009081526020819052604090205460405190815260200160405180910390f35b610070610092565b005b34801561007e57600080fd5b5061007061008d366004610254565b6100f0565b604080513381523460208201527fe1fffcc4923d04b559f4d29a8bfc6cda04eb5b0d3c460751c2402c5c5cc9109c910160405180910390a133600090815260208190526040812080543492906100e99084906102a2565b9091555050565b336000908152602081905260409020548111156101495760405162461bcd60e51b81526020600482015260126024820152714e6f7420656e6f7567682062616c616e636560701b60448201526064015b60405180910390fd5b33600090815260208190526040812080548392906101689084906102bb565b90915550506040516000906001600160a01b0384169083908381818185875af1925050503d80600081146101b8576040519150601f19603f3d011682016040523d82523d6000602084013e6101bd565b606091505b50509050806102065760405162461bcd60e51b81526020600482015260156024820152742330b4b632b2103a379039b2b7321022ba3432b91760591b6044820152606401610140565b604080513381526001600160a01b03851660208201529081018390527f9b1bfa7fa9ee420a16e124f794c35ac9f90472acc99140eb2f6447c714cad8eb9060600160405180910390a1505050565b6000806040838503121561026757600080fd5b82356001600160a01b038116811461027e57600080fd5b946020939093013593505050565b634e487b7160e01b600052601160045260246000fd5b808201808211156102b5576102b561028c565b92915050565b818103818111156102b5576102b561028c56fea264697066735822122003eccf7ce5b0e7a7e416b9bb1a94b439109e781ab0050fbe50c803036acb8c9364736f6c634300081c0033",
  "linkReferences": {},
  "deployedLinkReferences": {}
}