{
  "_format": "hh-sol-artifact-1",
  "contractName": "BankV2",
  "sourceName": "contracts/BankV2.sol",
  "abi": [
    {
      "anonymous": false,
      "inputs": [
        {
          "indexed": false,
          "internalType": "address",
          "name": "_sender",
          "type": "address"
        },
        {
          "indexed": false,
          "internalType": "uint256",
          "name": "_amount",
          "type": "uint256"
        }
      ],
      "name": "Deposit",
      "type": "event"
    },
    {
      "anonymous": false,
      "inputs": [
        {
          "indexed": false,
          "internalType": "address",
          "name": "_sender",
          "type": "address"
        },
        {
          "indexed": false,
          "internalType": "address",
          "name": "_to",
          "type": "address"
        },
        {
          "indexed": false,
          "internalType": "uint256",
          "name": "_amount",
          "type": "uint256"
        }
      ],
      "name": "Withdraw",
      "type": "event"
    },
    {
      "inputs": [],
      "name": "deposit",
      "outputs": [],
      "stateMutability": "payable",
      "type": "function"
    },
    {
      "inputs": [],
      "name": "getBalance",
      "outputs": [
        {
          "internalType": "uint256",
          "name": "",
          "type": "uint256"
        }
      ],
      "stateMutability": "view",
      "type": "function"
    },
    {
      "inputs": [
        {
          "internalType": "address",
          "name": "_to",
          "type": "address"
        },
        {
          "internalType": "uint256",
          "name": "_amount",
          "type": "uint256"
        }
      ],
      "name": "transfer",
      "outputs": [],
      "stateMutability": "nonpayable",
      "type": "function"
    },
    {
      "inputs": [],
      "name": "version",
      "outputs": [
        {
          "internalType": "uint256",
          "name": "",
          "type": "uint256"
        }
      ],
      "stateMutability": "pure",
      "type": "function"
    },
    {
      "inputs": [
        {
          "internalType": "address",
          "name": "_to",
          "type": "address"
        },
        {
          "internalType": "uint256",
          "name": "_amount",
          "type": "uint256"
        }
      ],
      "name": "withdraw",
      "outputs": [],
      "stateMutability": "nonpayable",
      "type": "function"
    }
  ],
  "bytecode": "0x6080604052348015600f57600080fd5b5061044e8061001f6000396000f3fe60806040526004361061004a5760003560e01c806312065fe01461004f57806354fd4d501461007f578063a9059cbb14610093578063d0e30db0146100b5578063f3fef3a3146100bd575b600080fd5b34801561005b57600080fd5b50336000908152602081905260409020545b60405190815260200160405180910390f35b34801561008b57600080fd5b50600261006d565b34801561009f57600080fd5b506100b36100ae36600461039e565b6100dd565b005b6100b36101e1565b3480156100c957600080fd5b506100b36100d836600461039e565b61023f565b6001600160a01b0382166101385760405162461bcd60e51b815260206004820152601960248201527f496e76616c696420726563697069656e7420616464726573730000000000000060448201526064015b60405180910390fd5b3360009081526020819052604090205481111561018c5760405162461bcd60e51b81526020600482015260126024820152714e6f7420656e6f7567682062616c616e636560701b604482015260640161012f565b33600090815260208190526040812080548392906101ab9084906103ec565b90915550506001600160a01b038216600090815260208190526040812080548392906101d8908490610405565b90915550505050565b604080513381523460208201527fe1fffcc4923d04b559f4d29a8bfc6cda04eb5b0d3c460751c2402c5c5cc9109c910160405180910390a13360009081526020819052604081208054349290610238908490610405565b9091555050565b336000908152602081905260409020548111156102935760405162461bcd60e51b81526020600482015260126024820152714e6f7420656e6f7567682062616c616e636560701b604482015260640161012f565b33600090815260208190526040812080548392906102b29084906103ec565b90915550506040516000906001600160a01b0384169083908381818185875af1925050503d8060008114610302576040519150601f19603f3d011682016040523d82523d6000602084013e610307565b606091505b50509050806103505760405162461bcd60e51b81526020600482015260156024820152742330b4b632b2103a379039b2b7321022ba3432b91760591b604482015260640161012f565b604080513381526001600160a01b03851660208201529081018390527f9b1bfa7fa9ee420a16e124f794c35ac9f90472acc99140eb2f6447c714cad8eb9060600160405180910390a1505050565b600080604083850312156103b157600080fd5b82356001600160a01b03811681146103c857600080fd5b946020939093013593505050565b634e487b7160e01b600052601160045260246000fd5b818103818111156103ff576103ff6103d6565b92915050565b808201808211156103ff576103ff6103d656fea2646970667358221220f2f148d6dac20f831460f883818f0fa39fe22b5182547231c37612fd960e4d6564736f6c634300081c0033",
  "linkReferences": {},
  "deployedLinkReferences": {}
}